{
  "contractName": "FakeNewsVerifier",
  "abi": [
    {
      "inputs": [],
      "stateMutability": "nonpayable",
      "type": "constructor"
    },
    {
      "anonymous": false,
      "inputs": [
        {
          "indexed": true,
          "internalType": "uint256",
          "name": "index",
          "type": "uint256"
        },
        {
          "indexed": true,
          "internalType": "bytes32",
          "name": "contentHash",
          "type": "bytes32"
        },
        {
          "indexed": false,
          "internalType": "string",
          "name": "source",
          "type": "string"
        },
        {
          "indexed": false,
          "internalType": "uint8",
          "name": "reliabilityScore",
          "type": "uint8"
        },
        {
          "indexed": true,
          "internalType": "address",
          "name": "author",
          "type": "address"
        },
        {
          "indexed": false,
          "internalType": "uint256",
          "name": "timestamp",
          "type": "uint256"
        }
      ],
      "name": "InformationSubmitted",
      "type": "event"
    },
    {
      "anonymous": false,
      "inputs": [
        {
          "indexed": true,
          "internalType": "uint256",
          "name": "index",
          "type": "uint256"
        },
        {
          "indexed": true,
          "internalType": "address",
          "name": "validator",
          "type": "address"
        },
        {
          "indexed": false,
          "internalType": "uint256",
          "name": "timestamp",
          "type": "uint256"
        }
      ],
      "name": "InformationValidated",
      "type": "event"
    },
    {
      "anonymous": false,
      "inputs": [
        {
          "indexed": true,
          "internalType": "address",
          "name": "moderator",
          "type": "address"
        },
        {
          "indexed": false,
          "internalType": "bool",
          "name": "enabled",
          "type": "bool"
        },
        {
          "indexed": true,
          "internalType": "address",
          "name": "updatedBy",
          "type": "address"
        },
        {
          "indexed": false,
          "internalType": "uint256",
          "name": "timestamp",
          "type": "uint256"
        }
      ],
      "name": "ModeratorUpdated",
      "type": "event"
    },
    {
      "inputs": [
        {
          "internalType": "uint256",
          "name": "",
          "type": "uint256"
        }
      ],
      "name": "informations",
      "outputs": [
        {
          "internalType": "bytes32",
          "name": "contentHash",
          "type": "bytes32"
        },
        {
          "internalType": "string",
          "name": "source",
          "type": "string"
        },
        {
          "internalType": "uint8",
          "name": "reliabilityScore",
          "type": "uint8"
        },
        {
          "internalType": "bool",
          "name": "validated",
          "type": "bool"
        },
        {
          "internalType": "address",
          "name": "author",
          "type": "address"
        },
        {
          "internalType": "uint256",
          "name": "timestamp",
          "type": "uint256"
        }
      ],
      "stateMutability": "view",
      "type": "function",
      "constant": true
    },
    {
      "inputs": [
        {
          "internalType": "address",
          "name": "",
          "type": "address"
        }
      ],
      "name": "moderators",
      "outputs": [
        {
          "internalType": "bool",
          "name": "",
          "type": "bool"
        }
      ],
      "stateMutability": "view",
      "type": "function",
      "constant": true
    },
    {
      "inputs": [],
      "name": "owner",
      "outputs": [
        {
          "internalType": "address",
          "name": "",
          "type": "address"
        }
      ],
      "stateMutability": "view",
      "type": "function",
      "constant": true
    },
    {
      "inputs": [
        {
          "internalType": "address",
          "name": "_moderator",
          "type": "address"
        },
        {
          "internalType": "bool",
          "name": "_enabled",
          "type": "bool"
        }
      ],
      "name": "setModerator",
      "outputs": [],
      "stateMutability": "nonpayable",
      "type": "function"
    },
    {
      "inputs": [
        {
          "internalType": "bytes32",
          "name": "_hash",
          "type": "bytes32"
        },
        {
          "internalType": "string",
          "name": "_source",
          "type": "string"
        },
        {
          "internalType": "uint8",
          "name": "_score",
          "type": "uint8"
        }
      ],
      "name": "submitInformation",
      "outputs": [],
      "stateMutability": "nonpayable",
      "type": "function"
    },
    {
      "inputs": [
        {
          "internalType": "uint256",
          "name": "index",
          "type": "uint256"
        }
      ],
      "name": "validateInformation",
      "outputs": [],
      "stateMutability": "nonpayable",
      "type": "function"
    },
    {
      "inputs": [],
      "name": "getInformationsCount",
      "outputs": [
        {
          "internalType": "uint256",
          "name": "",
          "type": "uint256"
        }
      ],
      "stateMutability": "view",
      "type": "function",
      "constant": true
    }
  ],
  "bytecode": "0x608060405234801561001057600080fd5b50600180546001600160a01b031916339081178255600081815260026020908152604091829020805460ff19168517905581519384524290840152909182917f0e4d6abfa9b44083f4770db7448c7ee5c02859b8fe6aa002b528f7228bc3ca43910160405180910390a3610af5806100896000396000f3fe608060405234801561001057600080fd5b506004361061007d5760003560e01c8063771207be1161005b578063771207be146100e05780638da5cb5b146100f3578063a00806e41461011e578063ac168fdf1461014357600080fd5b806304a11b1e1461008257806314d0f1ba146100985780633ee2b01d146100cb575b600080fd5b6000546040519081526020015b60405180910390f35b6100bb6100a6366004610718565b60026020526000908152604090205460ff1681565b604051901515815260200161008f565b6100de6100d936600461073a565b610156565b005b6100de6100ee36600461079d565b610251565b600154610106906001600160a01b031681565b6040516001600160a01b03909116815260200161008f565b61013161012c366004610868565b610471565b60405161008f969594939291906108c7565b6100de610151366004610868565b610554565b6001546001600160a01b031633146101a25760405162461bcd60e51b815260206004820152600a60248201526927a7262cafa7aba722a960b11b60448201526064015b60405180910390fd5b6001600160a01b0382166101e75760405162461bcd60e51b815260206004820152600c60248201526b5a45524f5f4144445245535360a01b6044820152606401610199565b6001600160a01b038216600081815260026020908152604091829020805460ff1916851515908117909155825190815242918101919091523392917f0e4d6abfa9b44083f4770db7448c7ee5c02859b8fe6aa002b528f7228bc3ca43910160405180910390a35050565b8261028b5760405162461bcd60e51b815260206004820152600a60248201526908a9aa0a8b2be9082a6960b31b6044820152606401610199565b60008251116102cb5760405162461bcd60e51b815260206004820152600c60248201526b454d5054595f534f5552434560a01b6044820152606401610199565b60648160ff1611156103145760405162461bcd60e51b815260206004820152601260248201527153434f52455f4f55545f4f465f52414e474560701b6044820152606401610199565b6040805160c0810182528481526020810184815260ff8416928201929092526000606082018190523360808301524260a08301528054600181018255908052815160049091027f290decd9548b62a8d60345a988386fc84ba6bc95484008f6362f93160ef3e56381019182559251919290917f290decd9548b62a8d60345a988386fc84ba6bc95484008f6362f93160ef3e564909101906103b5908261099a565b506040820151600282018054606085015160808601516001600160a01b0316620100000262010000600160b01b03199115156101000261ffff1990931660ff90951694909417919091171691909117905560a0909101516003909101556000805461042290600190610a5a565b9050336001600160a01b031684827f86afd9ced53b793d08d2d163be098bbfa396611a715aa1ebe6b2743d1a92007986864260405161046393929190610a81565b60405180910390a450505050565b6000818154811061048157600080fd5b600091825260209091206004909102018054600182018054919350906104a690610911565b80601f01602080910402602001604051908101604052809291908181526020018280546104d290610911565b801561051f5780601f106104f45761010080835404028352916020019161051f565b820191906000526020600020905b81548152906001019060200180831161050257829003601f168201915b505050506002830154600390930154919260ff8082169361010083049091169250620100009091046001600160a01b03169086565b6001546001600160a01b031633148061057c57503360009081526002602052604090205460ff165b6105c85760405162461bcd60e51b815260206004820152601760248201527f4f4e4c595f4f574e45525f4f525f4d4f44455241544f520000000000000000006044820152606401610199565b60005481106106055760405162461bcd60e51b815260206004820152600960248201526824a72222ac2fa7a7a160b91b6044820152606401610199565b6000818154811061061857610618610aa9565b906000526020600020906004020160020160019054906101000a900460ff16156106785760405162461bcd60e51b81526020600482015260116024820152701053149150511657d59053125110551151607a1b6044820152606401610199565b60016000828154811061068d5761068d610aa9565b906000526020600020906004020160020160016101000a81548160ff021916908315150217905550336001600160a01b0316817f92b6aafda3fbdd14e549809ff3b5eed5def77d71e5a4e3cd1b5534da1bfca84a426040516106f191815260200190565b60405180910390a350565b80356001600160a01b038116811461071357600080fd5b919050565b60006020828403121561072a57600080fd5b610733826106fc565b9392505050565b6000806040838503121561074d57600080fd5b610756836106fc565b91506020830135801515811461076b57600080fd5b809150509250929050565b634e487b7160e01b600052604160045260246000fd5b803560ff8116811461071357600080fd5b6000806000606084860312156107b257600080fd5b83359250602084013567ffffffffffffffff808211156107d157600080fd5b818601915086601f8301126107e557600080fd5b8135818111156107f7576107f7610776565b604051601f8201601f19908116603f0116810190838211818310171561081f5761081f610776565b8160405282815289602084870101111561083857600080fd5b82602086016020830137600060208483010152809650505050505061085f6040850161078c565b90509250925092565b60006020828403121561087a57600080fd5b5035919050565b6000815180845260005b818110156108a75760208185018101518683018201520161088b565b506000602082860101526020601f19601f83011685010191505092915050565b86815260c0602082015260006108e060c0830188610881565b60ff9690961660408301525092151560608401526001600160a01b0391909116608083015260a09091015292915050565b600181811c9082168061092557607f821691505b60208210810361094557634e487b7160e01b600052602260045260246000fd5b50919050565b601f82111561099557600081815260208120601f850160051c810160208610156109725750805b601f850160051c820191505b818110156109915782815560010161097e565b5050505b505050565b815167ffffffffffffffff8111156109b4576109b4610776565b6109c8816109c28454610911565b8461094b565b602080601f8311600181146109fd57600084156109e55750858301515b600019600386901b1c1916600185901b178555610991565b600085815260208120601f198616915b82811015610a2c57888601518255948401946001909101908401610a0d565b5085821015610a4a5787850151600019600388901b60f8161c191681555b5050505050600190811b01905550565b81810381811115610a7b57634e487b7160e01b600052601160045260246000fd5b92915050565b606081526000610a946060830186610881565b60ff9490941660208301525060400152919050565b634e487b7160e01b600052603260045260246000fdfea2646970667358221220605a8f2667781ac69f195dae45c73b1ecc0afa11c0681f75cc6064e4ecf2ed7b64736f6c63430008150033",
  "immutableReferences": {},
  "source": "// SPDX-License-Identifier: MIT\r\npragma solidity ^0.8.0;\r\n\r\ncontract FakeNewsVerifier {\r\n    struct Information {\r\n        bytes32 contentHash;\r\n        string source;\r\n        uint8 reliabilityScore; // 0..100\r\n        bool validated;\r\n        address author;\r\n        uint256 timestamp;\r\n    }\r\n\r\n    Information[] public informations;\r\n\r\n    address public owner;\r\n    mapping(address => bool) public moderators;\r\n\r\n    event InformationSubmitted(\r\n        uint256 indexed index,\r\n        bytes32 indexed contentHash,\r\n        string source,\r\n        uint8 reliabilityScore,\r\n        address indexed author,\r\n        uint256 timestamp\r\n    );\r\n\r\n    event InformationValidated(\r\n        uint256 indexed index,\r\n        address indexed validator,\r\n        uint256 timestamp\r\n    );\r\n\r\n    event ModeratorUpdated(\r\n        address indexed moderator,\r\n        bool enabled,\r\n        address indexed updatedBy,\r\n        uint256 timestamp\r\n    );\r\n\r\n    modifier onlyOwner() {\r\n        require(msg.sender == owner, \"ONLY_OWNER\");\r\n        _;\r\n    }\r\n\r\n    modifier onlyOwnerOrModerator() {\r\n        require(\r\n            msg.sender == owner || moderators[msg.sender],\r\n            \"ONLY_OWNER_OR_MODERATOR\"\r\n        );\r\n        _;\r\n    }\r\n\r\n    constructor() {\r\n        owner = msg.sender;\r\n        moderators[msg.sender] = true; // owner est aussi modrateur\r\n        emit ModeratorUpdated(msg.sender, true, msg.sender, block.timestamp);\r\n    }\r\n\r\n    function setModerator(address _moderator, bool _enabled) external onlyOwner {\r\n        require(_moderator != address(0), \"ZERO_ADDRESS\");\r\n        moderators[_moderator] = _enabled;\r\n        emit ModeratorUpdated(_moderator, _enabled, msg.sender, block.timestamp);\r\n    }\r\n\r\n    function submitInformation(bytes32 _hash, string memory _source, uint8 _score) external {\r\n        require(_hash != bytes32(0), \"EMPTY_HASH\");\r\n        require(bytes(_source).length > 0, \"EMPTY_SOURCE\");\r\n        require(_score <= 100, \"SCORE_OUT_OF_RANGE\");\r\n\r\n        informations.push(\r\n            Information({\r\n                contentHash: _hash,\r\n                source: _source,\r\n                reliabilityScore: _score,\r\n                validated: false,\r\n                author: msg.sender,\r\n                timestamp: block.timestamp\r\n            })\r\n        );\r\n\r\n        uint256 idx = informations.length - 1;\r\n        emit InformationSubmitted(idx, _hash, _source, _score, msg.sender, block.timestamp);\r\n    }\r\n\r\n    function validateInformation(uint256 index) external onlyOwnerOrModerator {\r\n        require(index < informations.length, \"INDEX_OOB\");\r\n        require(!informations[index].validated, \"ALREADY_VALIDATED\");\r\n\r\n        informations[index].validated = true;\r\n        emit InformationValidated(index, msg.sender, block.timestamp);\r\n    }\r\n\r\n    function getInformationsCount() external view returns (uint256) {\r\n        return informations.length;\r\n    }\r\n}\r\n",
  "sourcePath": "C:\\Users\\sadou\\OneDrive\\Desktop\\Fake_news\\blockchain\\contracts\\FakeNewsVerifier.sol",
  "compiler": {
    "name": "solc",
    "version": "0.8.21+commit.d9974bed.Emscripten.clang"
  },
  "schemaVersion": "3.4.16",
  "updatedAt": "2026-01-21T18:33:06.083Z",
  "networkType": "ethereum",
  "devdoc": {
    "kind": "dev",
    "methods": {},
    "version": 1
  },
  "userdoc": {
    "kind": "user",
    "methods": {},
    "version": 1
  }
}