{
  "contractName": "FakeNewsVerifier",
  "abi": [
    {
      "inputs": [
        {
          "internalType": "uint256",
          "name": "",
          "type": "uint256"
        }
      ],
      "name": "informations",
      "outputs": [
        {
          "internalType": "bytes32",
          "name": "contentHash",
          "type": "bytes32"
        },
        {
          "internalType": "string",
          "name": "source",
          "type": "string"
        },
        {
          "internalType": "uint8",
          "name": "reliabilityScore",
          "type": "uint8"
        },
        {
          "internalType": "bool",
          "name": "validated",
          "type": "bool"
        },
        {
          "internalType": "address",
          "name": "author",
          "type": "address"
        },
        {
          "internalType": "uint256",
          "name": "timestamp",
          "type": "uint256"
        }
      ],
      "stateMutability": "view",
      "type": "function"
    },
    {
      "inputs": [
        {
          "internalType": "bytes32",
          "name": "_hash",
          "type": "bytes32"
        },
        {
          "internalType": "string",
          "name": "_source",
          "type": "string"
        },
        {
          "internalType": "uint8",
          "name": "_score",
          "type": "uint8"
        }
      ],
      "name": "submitInformation",
      "outputs": [],
      "stateMutability": "nonpayable",
      "type": "function"
    },
    {
      "inputs": [
        {
          "internalType": "uint256",
          "name": "index",
          "type": "uint256"
        }
      ],
      "name": "validateInformation",
      "outputs": [],
      "stateMutability": "nonpayable",
      "type": "function"
    },
    {
      "inputs": [],
      "name": "getInformationsCount",
      "outputs": [
        {
          "internalType": "uint256",
          "name": "",
          "type": "uint256"
        }
      ],
      "stateMutability": "view",
      "type": "function"
    }
  ],
  "bytecode": "0x608060405234801561000f575f80fd5b50610a778061001d5f395ff3fe608060405234801561000f575f80fd5b506004361061004a575f3560e01c806304a11b1e1461004e578063771207be1461006c578063a00806e414610088578063ac168fdf146100bd575b5f80fd5b6100566100d9565b6040516100639190610364565b60405180910390f35b61008660048036038101906100819190610533565b6100e4565b005b6100a2600480360381019061009d91906105c9565b610209565b6040516100b4969594939291906106e5565b60405180910390f35b6100d760048036038101906100d291906105c9565b61030e565b005b5f8080549050905090565b5f6040518060c001604052808581526020018481526020018360ff1681526020015f151581526020013373ffffffffffffffffffffffffffffffffffffffff16815260200142815250908060018154018082558091505060019003905f5260205f2090600402015f909190919091505f820151815f015560208201518160010190816101709190610945565b506040820151816002015f6101000a81548160ff021916908360ff16021790555060608201518160020160016101000a81548160ff02191690831515021790555060808201518160020160026101000a81548173ffffffffffffffffffffffffffffffffffffffff021916908373ffffffffffffffffffffffffffffffffffffffff16021790555060a082015181600301555050505050565b5f8181548110610217575f80fd5b905f5260205f2090600402015f91509050805f01549080600101805461023c90610778565b80601f016020809104026020016040519081016040528092919081815260200182805461026890610778565b80156102b35780601f1061028a576101008083540402835291602001916102b3565b820191905f5260205f20905b81548152906001019060200180831161029657829003601f168201915b505050505090806002015f9054906101000a900460ff16908060020160019054906101000a900460ff16908060020160029054906101000a900473ffffffffffffffffffffffffffffffffffffffff16908060030154905086565b60015f828154811061032357610322610a14565b5b905f5260205f20906004020160020160016101000a81548160ff02191690831515021790555050565b5f819050919050565b61035e8161034c565b82525050565b5f6020820190506103775f830184610355565b92915050565b5f604051905090565b5f80fd5b5f80fd5b5f819050919050565b6103a08161038e565b81146103aa575f80fd5b50565b5f813590506103bb81610397565b92915050565b5f80fd5b5f80fd5b5f601f19601f8301169050919050565b7f4e487b71000000000000000000000000000000000000000000000000000000005f52604160045260245ffd5b61040f826103c9565b810181811067ffffffffffffffff8211171561042e5761042d6103d9565b5b80604052505050565b5f61044061037d565b905061044c8282610406565b919050565b5f67ffffffffffffffff82111561046b5761046a6103d9565b5b610474826103c9565b9050602081019050919050565b828183375f83830152505050565b5f6104a161049c84610451565b610437565b9050828152602081018484840111156104bd576104bc6103c5565b5b6104c8848285610481565b509392505050565b5f82601f8301126104e4576104e36103c1565b5b81356104f484826020860161048f565b91505092915050565b5f60ff82169050919050565b610512816104fd565b811461051c575f80fd5b50565b5f8135905061052d81610509565b92915050565b5f805f6060848603121561054a57610549610386565b5b5f610557868287016103ad565b935050602084013567ffffffffffffffff8111156105785761057761038a565b5b610584868287016104d0565b92505060406105958682870161051f565b9150509250925092565b6105a88161034c565b81146105b2575f80fd5b50565b5f813590506105c38161059f565b92915050565b5f602082840312156105de576105dd610386565b5b5f6105eb848285016105b5565b91505092915050565b6105fd8161038e565b82525050565b5f81519050919050565b5f82825260208201905092915050565b5f5b8381101561063a57808201518184015260208101905061061f565b5f8484015250505050565b5f61064f82610603565b610659818561060d565b935061066981856020860161061d565b610672816103c9565b840191505092915050565b610686816104fd565b82525050565b5f8115159050919050565b6106a08161068c565b82525050565b5f73ffffffffffffffffffffffffffffffffffffffff82169050919050565b5f6106cf826106a6565b9050919050565b6106df816106c5565b82525050565b5f60c0820190506106f85f8301896105f4565b818103602083015261070a8188610645565b9050610719604083018761067d565b6107266060830186610697565b61073360808301856106d6565b61074060a0830184610355565b979650505050505050565b7f4e487b71000000000000000000000000000000000000000000000000000000005f52602260045260245ffd5b5f600282049050600182168061078f57607f821691505b6020821081036107a2576107a161074b565b5b50919050565b5f819050815f5260205f209050919050565b5f6020601f8301049050919050565b5f82821b905092915050565b5f600883026108047fffffffffffffffffffffffffffffffffffffffffffffffffffffffffffffffff826107c9565b61080e86836107c9565b95508019841693508086168417925050509392505050565b5f819050919050565b5f61084961084461083f8461034c565b610826565b61034c565b9050919050565b5f819050919050565b6108628361082f565b61087661086e82610850565b8484546107d5565b825550505050565b5f90565b61088a61087e565b610895818484610859565b505050565b5b818110156108b8576108ad5f82610882565b60018101905061089b565b5050565b601f8211156108fd576108ce816107a8565b6108d7846107ba565b810160208510156108e6578190505b6108fa6108f2856107ba565b83018261089a565b50505b505050565b5f82821c905092915050565b5f61091d5f1984600802610902565b1980831691505092915050565b5f610935838361090e565b9150826002028217905092915050565b61094e82610603565b67ffffffffffffffff811115610967576109666103d9565b5b6109718254610778565b61097c8282856108bc565b5f60209050601f8311600181146109ad575f841561099b578287015190505b6109a5858261092a565b865550610a0c565b601f1984166109bb866107a8565b5f5b828110156109e2578489015182556001820191506020850194506020810190506109bd565b868310156109ff57848901516109fb601f89168261090e565b8355505b6001600288020188555050505b505050505050565b7f4e487b71000000000000000000000000000000000000000000000000000000005f52603260045260245ffdfea264697066735822122075bc34b6e36e27f49a290a9af133a9e359e87e4a37fd3a41eec1cb991627b4a064736f6c63430008150033",
  "immutableReferences": {},
  "source": "// SPDX-License-Identifier: MIT\r\npragma solidity ^0.8.0;\r\n\r\ncontract FakeNewsVerifier {\r\n\r\n    struct Information {\r\n        bytes32 contentHash;\r\n        string source;\r\n        uint8 reliabilityScore;\r\n        bool validated;\r\n        address author;\r\n        uint timestamp;\r\n    }\r\n\r\n    Information[] public informations;\r\n\r\n    function submitInformation(bytes32 _hash, string memory _source, uint8 _score) public {\r\n        informations.push(\r\n            Information(\r\n                _hash,\r\n                _source,\r\n                _score,\r\n                false,\r\n                msg.sender,\r\n                block.timestamp\r\n            )\r\n        );\r\n    }\r\n\r\n    function validateInformation(uint index) public {\r\n        informations[index].validated = true;\r\n    }\r\n\r\n    function getInformationsCount() public view returns (uint) {\r\n        return informations.length;\r\n    }\r\n}\r\n",
  "sourcePath": "C:\\Users\\sadou\\OneDrive\\Desktop\\Fake_news\\blockchain\\contracts\\FakeNewsVerifier.sol",
  "compiler": {
    "name": "solc",
    "version": "0.8.21+commit.d9974bed.Emscripten.clang"
  },
  "schemaVersion": "3.4.16",
  "updatedAt": "2025-12-30T16:16:39.301Z",
  "devdoc": {
    "kind": "dev",
    "methods": {},
    "version": 1
  },
  "userdoc": {
    "kind": "user",
    "methods": {},
    "version": 1
  }
}