{
  "contractName": "FakeNewsVerifier",
  "abi": [
    {
      "inputs": [],
      "stateMutability": "nonpayable",
      "type": "constructor"
    },
    {
      "anonymous": false,
      "inputs": [
        {
          "indexed": true,
          "internalType": "uint256",
          "name": "index",
          "type": "uint256"
        },
        {
          "indexed": false,
          "internalType": "bytes32",
          "name": "contentHash",
          "type": "bytes32"
        },
        {
          "indexed": false,
          "internalType": "string",
          "name": "source",
          "type": "string"
        },
        {
          "indexed": false,
          "internalType": "uint8",
          "name": "score",
          "type": "uint8"
        },
        {
          "indexed": true,
          "internalType": "address",
          "name": "author",
          "type": "address"
        }
      ],
      "name": "InformationSubmitted",
      "type": "event"
    },
    {
      "anonymous": false,
      "inputs": [
        {
          "indexed": true,
          "internalType": "uint256",
          "name": "index",
          "type": "uint256"
        },
        {
          "indexed": true,
          "internalType": "address",
          "name": "validator",
          "type": "address"
        }
      ],
      "name": "InformationValidated",
      "type": "event"
    },
    {
      "anonymous": false,
      "inputs": [
        {
          "indexed": true,
          "internalType": "address",
          "name": "moderator",
          "type": "address"
        },
        {
          "indexed": false,
          "internalType": "bool",
          "name": "enabled",
          "type": "bool"
        }
      ],
      "name": "ModeratorUpdated",
      "type": "event"
    },
    {
      "inputs": [
        {
          "internalType": "uint256",
          "name": "",
          "type": "uint256"
        }
      ],
      "name": "informations",
      "outputs": [
        {
          "internalType": "bytes32",
          "name": "contentHash",
          "type": "bytes32"
        },
        {
          "internalType": "string",
          "name": "source",
          "type": "string"
        },
        {
          "internalType": "uint8",
          "name": "reliabilityScore",
          "type": "uint8"
        },
        {
          "internalType": "bool",
          "name": "validated",
          "type": "bool"
        },
        {
          "internalType": "address",
          "name": "author",
          "type": "address"
        },
        {
          "internalType": "uint256",
          "name": "timestamp",
          "type": "uint256"
        }
      ],
      "stateMutability": "view",
      "type": "function",
      "constant": true
    },
    {
      "inputs": [
        {
          "internalType": "address",
          "name": "",
          "type": "address"
        }
      ],
      "name": "moderators",
      "outputs": [
        {
          "internalType": "bool",
          "name": "",
          "type": "bool"
        }
      ],
      "stateMutability": "view",
      "type": "function",
      "constant": true
    },
    {
      "inputs": [],
      "name": "owner",
      "outputs": [
        {
          "internalType": "address",
          "name": "",
          "type": "address"
        }
      ],
      "stateMutability": "view",
      "type": "function",
      "constant": true
    },
    {
      "inputs": [
        {
          "internalType": "address",
          "name": "_mod",
          "type": "address"
        },
        {
          "internalType": "bool",
          "name": "_enabled",
          "type": "bool"
        }
      ],
      "name": "setModerator",
      "outputs": [],
      "stateMutability": "nonpayable",
      "type": "function"
    },
    {
      "inputs": [
        {
          "internalType": "bytes32",
          "name": "_hash",
          "type": "bytes32"
        },
        {
          "internalType": "string",
          "name": "_source",
          "type": "string"
        },
        {
          "internalType": "uint8",
          "name": "_score",
          "type": "uint8"
        }
      ],
      "name": "submitInformation",
      "outputs": [],
      "stateMutability": "nonpayable",
      "type": "function"
    },
    {
      "inputs": [
        {
          "internalType": "uint256",
          "name": "index",
          "type": "uint256"
        }
      ],
      "name": "validateInformation",
      "outputs": [],
      "stateMutability": "nonpayable",
      "type": "function"
    },
    {
      "inputs": [],
      "name": "getInformationsCount",
      "outputs": [
        {
          "internalType": "uint256",
          "name": "",
          "type": "uint256"
        }
      ],
      "stateMutability": "view",
      "type": "function",
      "constant": true
    }
  ],
  "bytecode": "0x608060405234801561001057600080fd5b50600080546001600160a01b0319163390811782558152600160208190526040909120805460ff191690911790556109998061004d6000396000f3fe608060405234801561001057600080fd5b506004361061007d5760003560e01c8063771207be1161005b578063771207be146100e05780638da5cb5b146100f3578063a00806e41461011e578063ac168fdf1461014357600080fd5b806304a11b1e1461008257806314d0f1ba146100985780633ee2b01d146100cb575b600080fd5b6002546040519081526020015b60405180910390f35b6100bb6100a63660046105b8565b60016020526000908152604090205460ff1681565b604051901515815260200161008f565b6100de6100d93660046105da565b610156565b005b6100de6100ee36600461063d565b610201565b600054610106906001600160a01b031681565b6040516001600160a01b03909116815260200161008f565b61013161012c366004610708565b61039b565b60405161008f96959493929190610767565b6100de610151366004610708565b61047e565b6000546001600160a01b031633146101a25760405162461bcd60e51b815260206004820152600a60248201526927b7363c9037bbb732b960b11b60448201526064015b60405180910390fd5b6001600160a01b038216600081815260016020908152604091829020805460ff191685151590811790915591519182527f26e4a6a023a3571e6b5896c2194796e79d4d8f7246e495957612f0c3a641e734910160405180910390a25050565b60648160ff16111561024b5760405162461bcd60e51b8152602060048201526013602482015272053636f7265206d75737420626520302d31303606c1b6044820152606401610199565b6040805160c0810182528481526020810184815260ff8416928201929092526000606082018190523360808301524260a0830152600280546001810182559152815160049091027f405787fa12a823e0f2b7631cc41b3ba8828b3321ca811111fa75cd3aa3bb5ace81019182559251919290917f405787fa12a823e0f2b7631cc41b3ba8828b3321ca811111fa75cd3aa3bb5acf909101906102ed908261083a565b50604082015160028083018054606086015160808701516001600160a01b0316620100000262010000600160b01b03199115156101000261ffff1990931660ff9096169590951791909117169290921790915560a09092015160039091015554339061035b906001906108fa565b7f28ce450fb94358970f6cc53e3f5c4fdb12464a9f9bdc650c0de4b66bdde763a985858560405161038e93929190610921565b60405180910390a3505050565b600281815481106103ab57600080fd5b600091825260209091206004909102018054600182018054919350906103d0906107b1565b80601f01602080910402602001604051908101604052809291908181526020018280546103fc906107b1565b80156104495780601f1061041e57610100808354040283529160200191610449565b820191906000526020600020905b81548152906001019060200180831161042c57829003601f168201915b505050506002830154600390930154919260ff8082169361010083049091169250620100009091046001600160a01b03169086565b3360009081526001602052604090205460ff16806104a657506000546001600160a01b031633145b6104e95760405162461bcd60e51b815260206004820152601460248201527327b7363c9036b7b232b930ba37b917b7bbb732b960611b6044820152606401610199565b60025481106105305760405162461bcd60e51b8152602060048201526013602482015272496e646578206f7574206f6620626f756e647360681b6044820152606401610199565b6001600282815481106105455761054561094d565b60009182526020822060026004909202010180549215156101000261ff001990931692909217909155604051339183917f121a516e2b66d7ef0fc6dd17a63cbd99fcd9420bdbcaac94f9008122b1ef61019190a350565b80356001600160a01b03811681146105b357600080fd5b919050565b6000602082840312156105ca57600080fd5b6105d38261059c565b9392505050565b600080604083850312156105ed57600080fd5b6105f68361059c565b91506020830135801515811461060b57600080fd5b809150509250929050565b634e487b7160e01b600052604160045260246000fd5b803560ff811681146105b357600080fd5b60008060006060848603121561065257600080fd5b83359250602084013567ffffffffffffffff8082111561067157600080fd5b818601915086601f83011261068557600080fd5b81358181111561069757610697610616565b604051601f8201601f19908116603f011681019083821181831017156106bf576106bf610616565b816040528281528960208487010111156106d857600080fd5b8260208601602083013760006020848301015280965050505050506106ff6040850161062c565b90509250925092565b60006020828403121561071a57600080fd5b5035919050565b6000815180845260005b818110156107475760208185018101518683018201520161072b565b506000602082860101526020601f19601f83011685010191505092915050565b86815260c06020820152600061078060c0830188610721565b60ff9690961660408301525092151560608401526001600160a01b0391909116608083015260a09091015292915050565b600181811c908216806107c557607f821691505b6020821081036107e557634e487b7160e01b600052602260045260246000fd5b50919050565b601f82111561083557600081815260208120601f850160051c810160208610156108125750805b601f850160051c820191505b818110156108315782815560010161081e565b5050505b505050565b815167ffffffffffffffff81111561085457610854610616565b6108688161086284546107b1565b846107eb565b602080601f83116001811461089d57600084156108855750858301515b600019600386901b1c1916600185901b178555610831565b600085815260208120601f198616915b828110156108cc578886015182559484019460019091019084016108ad565b50858210156108ea5787850151600019600388901b60f8161c191681555b5050505050600190811b01905550565b8181038181111561091b57634e487b7160e01b600052601160045260246000fd5b92915050565b83815260606020820152600061093a6060830185610721565b905060ff83166040830152949350505050565b634e487b7160e01b600052603260045260246000fdfea2646970667358221220556906381c060d5c960c96d1cf6d75f42ab4bacfcae0624f57f85b2af2052c3e64736f6c63430008150033",
  "immutableReferences": {},
  "source": "// SPDX-License-Identifier: MIT\r\npragma solidity ^0.8.0;\r\n\r\ncontract FakeNewsVerifier {\r\n    address public owner;\r\n    mapping(address => bool) public moderators;\r\n\r\n    struct Information {\r\n        bytes32 contentHash;\r\n        string source;\r\n        uint8 reliabilityScore;\r\n        bool validated;\r\n        address author;\r\n        uint timestamp;\r\n    }\r\n\r\n    Information[] public informations;\r\n\r\n    event InformationSubmitted(uint indexed index, bytes32 contentHash, string source, uint8 score, address indexed author);\r\n    event InformationValidated(uint indexed index, address indexed validator);\r\n    event ModeratorUpdated(address indexed moderator, bool enabled);\r\n\r\n    modifier onlyOwner() {\r\n        require(msg.sender == owner, \"Only owner\");\r\n        _;\r\n    }\r\n\r\n    modifier onlyModerator() {\r\n        require(moderators[msg.sender] || msg.sender == owner, \"Only moderator/owner\");\r\n        _;\r\n    }\r\n\r\n    constructor() {\r\n        owner = msg.sender;\r\n        moderators[msg.sender] = true; // le deployer est modrateur\r\n    }\r\n\r\n    function setModerator(address _mod, bool _enabled) external onlyOwner {\r\n        moderators[_mod] = _enabled;\r\n        emit ModeratorUpdated(_mod, _enabled);\r\n    }\r\n\r\n    function submitInformation(bytes32 _hash, string memory _source, uint8 _score) public {\r\n        require(_score <= 100, \"Score must be 0-100\");\r\n\r\n        informations.push(\r\n            Information(_hash, _source, _score, false, msg.sender, block.timestamp)\r\n        );\r\n\r\n        emit InformationSubmitted(informations.length - 1, _hash, _source, _score, msg.sender);\r\n    }\r\n\r\n    function validateInformation(uint index) public onlyModerator {\r\n        require(index < informations.length, \"Index out of bounds\");\r\n        informations[index].validated = true;\r\n        emit InformationValidated(index, msg.sender);\r\n    }\r\n\r\n    function getInformationsCount() public view returns (uint) {\r\n        return informations.length;\r\n    }\r\n}\r\n",
  "sourcePath": "C:\\Users\\sadou\\OneDrive\\Desktop\\Fake_news\\blockchain\\contracts\\FakeNewsVerifier.sol",
  "compiler": {
    "name": "solc",
    "version": "0.8.21+commit.d9974bed.Emscripten.clang"
  },
  "schemaVersion": "3.4.16",
  "updatedAt": "2026-01-21T17:43:35.866Z",
  "networkType": "ethereum",
  "devdoc": {
    "kind": "dev",
    "methods": {},
    "version": 1
  },
  "userdoc": {
    "kind": "user",
    "methods": {},
    "version": 1
  }
}