{
  "contractName": "FakeNewsVerifier",
  "abi": [
    {
      "inputs": [
        {
          "internalType": "address[]",
          "name": "moderators",
          "type": "address[]"
        },
        {
          "internalType": "address[]",
          "name": "oracles",
          "type": "address[]"
        }
      ],
      "stateMutability": "nonpayable",
      "type": "constructor"
    },
    {
      "inputs": [],
      "name": "AccessControlBadConfirmation",
      "type": "error"
    },
    {
      "inputs": [
        {
          "internalType": "address",
          "name": "account",
          "type": "address"
        },
        {
          "internalType": "bytes32",
          "name": "neededRole",
          "type": "bytes32"
        }
      ],
      "name": "AccessControlUnauthorizedAccount",
      "type": "error"
    },
    {
      "anonymous": false,
      "inputs": [
        {
          "indexed": true,
          "internalType": "uint256",
          "name": "index",
          "type": "uint256"
        },
        {
          "indexed": false,
          "internalType": "uint8",
          "name": "score",
          "type": "uint8"
        },
        {
          "indexed": false,
          "internalType": "bool",
          "name": "label",
          "type": "bool"
        },
        {
          "indexed": false,
          "internalType": "string",
          "name": "modelVersion",
          "type": "string"
        },
        {
          "indexed": true,
          "internalType": "address",
          "name": "oracle",
          "type": "address"
        },
        {
          "indexed": false,
          "internalType": "uint256",
          "name": "timestamp",
          "type": "uint256"
        }
      ],
      "name": "InformationScored",
      "type": "event"
    },
    {
      "anonymous": false,
      "inputs": [
        {
          "indexed": true,
          "internalType": "uint256",
          "name": "index",
          "type": "uint256"
        },
        {
          "indexed": true,
          "internalType": "address",
          "name": "author",
          "type": "address"
        },
        {
          "indexed": false,
          "internalType": "bytes32",
          "name": "contentHash",
          "type": "bytes32"
        },
        {
          "indexed": false,
          "internalType": "string",
          "name": "source",
          "type": "string"
        },
        {
          "indexed": false,
          "internalType": "uint8",
          "name": "reliabilityScore",
          "type": "uint8"
        },
        {
          "indexed": false,
          "internalType": "uint256",
          "name": "timestamp",
          "type": "uint256"
        }
      ],
      "name": "InformationSubmitted",
      "type": "event"
    },
    {
      "anonymous": false,
      "inputs": [
        {
          "indexed": true,
          "internalType": "uint256",
          "name": "index",
          "type": "uint256"
        },
        {
          "indexed": true,
          "internalType": "address",
          "name": "validator",
          "type": "address"
        },
        {
          "indexed": false,
          "internalType": "uint256",
          "name": "timestamp",
          "type": "uint256"
        }
      ],
      "name": "InformationValidated",
      "type": "event"
    },
    {
      "anonymous": false,
      "inputs": [
        {
          "indexed": true,
          "internalType": "bytes32",
          "name": "role",
          "type": "bytes32"
        },
        {
          "indexed": true,
          "internalType": "bytes32",
          "name": "previousAdminRole",
          "type": "bytes32"
        },
        {
          "indexed": true,
          "internalType": "bytes32",
          "name": "newAdminRole",
          "type": "bytes32"
        }
      ],
      "name": "RoleAdminChanged",
      "type": "event"
    },
    {
      "anonymous": false,
      "inputs": [
        {
          "indexed": true,
          "internalType": "bytes32",
          "name": "role",
          "type": "bytes32"
        },
        {
          "indexed": true,
          "internalType": "address",
          "name": "account",
          "type": "address"
        },
        {
          "indexed": true,
          "internalType": "address",
          "name": "sender",
          "type": "address"
        }
      ],
      "name": "RoleGranted",
      "type": "event"
    },
    {
      "anonymous": false,
      "inputs": [
        {
          "indexed": true,
          "internalType": "bytes32",
          "name": "role",
          "type": "bytes32"
        },
        {
          "indexed": true,
          "internalType": "address",
          "name": "account",
          "type": "address"
        },
        {
          "indexed": true,
          "internalType": "address",
          "name": "sender",
          "type": "address"
        }
      ],
      "name": "RoleRevoked",
      "type": "event"
    },
    {
      "inputs": [],
      "name": "DEFAULT_ADMIN_ROLE",
      "outputs": [
        {
          "internalType": "bytes32",
          "name": "",
          "type": "bytes32"
        }
      ],
      "stateMutability": "view",
      "type": "function",
      "constant": true
    },
    {
      "inputs": [],
      "name": "MODERATOR_ROLE",
      "outputs": [
        {
          "internalType": "bytes32",
          "name": "",
          "type": "bytes32"
        }
      ],
      "stateMutability": "view",
      "type": "function",
      "constant": true
    },
    {
      "inputs": [],
      "name": "ORACLE_ROLE",
      "outputs": [
        {
          "internalType": "bytes32",
          "name": "",
          "type": "bytes32"
        }
      ],
      "stateMutability": "view",
      "type": "function",
      "constant": true
    },
    {
      "inputs": [
        {
          "internalType": "bytes32",
          "name": "role",
          "type": "bytes32"
        }
      ],
      "name": "getRoleAdmin",
      "outputs": [
        {
          "internalType": "bytes32",
          "name": "",
          "type": "bytes32"
        }
      ],
      "stateMutability": "view",
      "type": "function",
      "constant": true
    },
    {
      "inputs": [
        {
          "internalType": "bytes32",
          "name": "role",
          "type": "bytes32"
        },
        {
          "internalType": "address",
          "name": "account",
          "type": "address"
        }
      ],
      "name": "grantRole",
      "outputs": [],
      "stateMutability": "nonpayable",
      "type": "function"
    },
    {
      "inputs": [
        {
          "internalType": "bytes32",
          "name": "role",
          "type": "bytes32"
        },
        {
          "internalType": "address",
          "name": "account",
          "type": "address"
        }
      ],
      "name": "hasRole",
      "outputs": [
        {
          "internalType": "bool",
          "name": "",
          "type": "bool"
        }
      ],
      "stateMutability": "view",
      "type": "function",
      "constant": true
    },
    {
      "inputs": [
        {
          "internalType": "uint256",
          "name": "",
          "type": "uint256"
        }
      ],
      "name": "informations",
      "outputs": [
        {
          "internalType": "bytes32",
          "name": "contentHash",
          "type": "bytes32"
        },
        {
          "internalType": "string",
          "name": "source",
          "type": "string"
        },
        {
          "internalType": "uint8",
          "name": "reliabilityScore",
          "type": "uint8"
        },
        {
          "internalType": "bool",
          "name": "validated",
          "type": "bool"
        },
        {
          "internalType": "address",
          "name": "author",
          "type": "address"
        },
        {
          "internalType": "uint256",
          "name": "timestamp",
          "type": "uint256"
        },
        {
          "internalType": "uint8",
          "name": "mlScore",
          "type": "uint8"
        },
        {
          "internalType": "bool",
          "name": "mlLabel",
          "type": "bool"
        },
        {
          "internalType": "string",
          "name": "modelVersion",
          "type": "string"
        },
        {
          "internalType": "address",
          "name": "oracle",
          "type": "address"
        },
        {
          "internalType": "uint256",
          "name": "scoredAt",
          "type": "uint256"
        },
        {
          "internalType": "address",
          "name": "validator",
          "type": "address"
        },
        {
          "internalType": "uint256",
          "name": "validatedAt",
          "type": "uint256"
        }
      ],
      "stateMutability": "view",
      "type": "function",
      "constant": true
    },
    {
      "inputs": [
        {
          "internalType": "bytes32",
          "name": "role",
          "type": "bytes32"
        },
        {
          "internalType": "address",
          "name": "callerConfirmation",
          "type": "address"
        }
      ],
      "name": "renounceRole",
      "outputs": [],
      "stateMutability": "nonpayable",
      "type": "function"
    },
    {
      "inputs": [
        {
          "internalType": "bytes32",
          "name": "role",
          "type": "bytes32"
        },
        {
          "internalType": "address",
          "name": "account",
          "type": "address"
        }
      ],
      "name": "revokeRole",
      "outputs": [],
      "stateMutability": "nonpayable",
      "type": "function"
    },
    {
      "inputs": [
        {
          "internalType": "bytes4",
          "name": "interfaceId",
          "type": "bytes4"
        }
      ],
      "name": "supportsInterface",
      "outputs": [
        {
          "internalType": "bool",
          "name": "",
          "type": "bool"
        }
      ],
      "stateMutability": "view",
      "type": "function",
      "constant": true
    },
    {
      "inputs": [],
      "name": "getInformationsCount",
      "outputs": [
        {
          "internalType": "uint256",
          "name": "",
          "type": "uint256"
        }
      ],
      "stateMutability": "view",
      "type": "function",
      "constant": true
    },
    {
      "inputs": [
        {
          "internalType": "bytes32",
          "name": "contentHash",
          "type": "bytes32"
        },
        {
          "internalType": "string",
          "name": "source",
          "type": "string"
        },
        {
          "internalType": "uint8",
          "name": "reliabilityScore",
          "type": "uint8"
        }
      ],
      "name": "submitInformation",
      "outputs": [],
      "stateMutability": "nonpayable",
      "type": "function"
    },
    {
      "inputs": [
        {
          "internalType": "uint256",
          "name": "index",
          "type": "uint256"
        }
      ],
      "name": "validateInformation",
      "outputs": [],
      "stateMutability": "nonpayable",
      "type": "function"
    },
    {
      "inputs": [
        {
          "internalType": "uint256",
          "name": "index",
          "type": "uint256"
        },
        {
          "internalType": "uint8",
          "name": "score",
          "type": "uint8"
        },
        {
          "internalType": "bool",
          "name": "label",
          "type": "bool"
        },
        {
          "internalType": "string",
          "name": "modelVersion",
          "type": "string"
        }
      ],
      "name": "setMLResult",
      "outputs": [],
      "stateMutability": "nonpayable",
      "type": "function"
    },
    {
      "inputs": [
        {
          "internalType": "uint256",
          "name": "index",
          "type": "uint256"
        }
      ],
      "name": "moderatorValidateInformation",
      "outputs": [],
      "stateMutability": "nonpayable",
      "type": "function"
    }
  ],
  "bytecode": "0x60806040523480156200001157600080fd5b5060405162001535380380620015358339810160408190526200003491620002a9565b620000416000336200011a565b5060005b8251811015620000b3576200009d7f71f3d55856e4058ed06ee057d79ada615f65cdf5f9ee88181b914225088f834f84838151811062000089576200008962000313565b60200260200101516200011a60201b60201c565b5080620000aa8162000329565b91505062000045565b5060005b81518110156200011157620000fb7f68e79a7bf1e0bc45d0a330c573bc367f9cf464fd326078812f301165fbda4ef183838151811062000089576200008962000313565b5080620001088162000329565b915050620000b7565b50505062000351565b6000828152602081815260408083206001600160a01b038516845290915281205460ff16620001bf576000838152602081815260408083206001600160a01b03861684529091529020805460ff19166001179055620001763390565b6001600160a01b0316826001600160a01b0316847f2f8788117e7eff1d82e926ec794901d17c78024a50270940304540a733656f0d60405160405180910390a4506001620001c3565b5060005b92915050565b634e487b7160e01b600052604160045260246000fd5b80516001600160a01b0381168114620001f757600080fd5b919050565b600082601f8301126200020e57600080fd5b815160206001600160401b03808311156200022d576200022d620001c9565b8260051b604051601f19603f83011681018181108482111715620002555762000255620001c9565b6040529384528581018301938381019250878511156200027457600080fd5b83870191505b848210156200029e576200028e82620001df565b835291830191908301906200027a565b979650505050505050565b60008060408385031215620002bd57600080fd5b82516001600160401b0380821115620002d557600080fd5b620002e386838701620001fc565b93506020850151915080821115620002fa57600080fd5b506200030985828601620001fc565b9150509250929050565b634e487b7160e01b600052603260045260246000fd5b6000600182016200034a57634e487b7160e01b600052601160045260246000fd5b5060010190565b6111d480620003616000396000f3fe608060405234801561001057600080fd5b50600436106100f55760003560e01c8063771207be11610097578063a217fddf11610066578063a217fddf14610232578063ac168fdf1461023a578063d547741f1461024d578063efd0b2591461026057600080fd5b8063771207be146101b9578063797669c9146101cc57806391d14854146101f3578063a00806e41461020657600080fd5b8063248a9ca3116100d3578063248a9ca31461015b5780632f2ff15d1461017e57806336568abe146101935780634855c1fe146101a657600080fd5b806301ffc9a7146100fa57806304a11b1e1461012257806307e2cea514610134575b600080fd5b61010d610108366004610bd7565b610273565b60405190151581526020015b60405180910390f35b6001545b604051908152602001610119565b6101267f68e79a7bf1e0bc45d0a330c573bc367f9cf464fd326078812f301165fbda4ef181565b610126610169366004610c08565b60009081526020819052604090206001015490565b61019161018c366004610c21565b6102aa565b005b6101916101a1366004610c21565b6102d5565b6101916101b4366004610c08565b61030d565b6101916101c7366004610cbc565b6103fc565b6101267f71f3d55856e4058ed06ee057d79ada615f65cdf5f9ee88181b914225088f834f81565b61010d610201366004610c21565b610690565b610219610214366004610c08565b6106b9565b6040516101199d9c9b9a99989796959493929190610d60565b610126600081565b610191610248366004610c08565b610860565b61019161025b366004610c21565b61091b565b61019161026e366004610e1a565b610940565b60006001600160e01b03198216637965db0b60e01b14806102a457506301ffc9a760e01b6001600160e01b03198316145b92915050565b6000828152602081905260409020600101546102c581610a90565b6102cf8383610a9d565b50505050565b6001600160a01b03811633146102fe5760405163334bd91960e11b815260040160405180910390fd5b6103088282610b2f565b505050565b7f71f3d55856e4058ed06ee057d79ada615f65cdf5f9ee88181b914225088f834f61033781610a90565b60015482106103615760405162461bcd60e51b815260040161035890610e90565b60405180910390fd5b60006001838154811061037657610376610eb7565b600091825260209091206002600a90920201908101805461ff0019166101001790556008810180546001600160a01b031916339081179091554260098301819055604051929350909185917f92b6aafda3fbdd14e549809ff3b5eed5def77d71e5a4e3cd1b5534da1bfca84a916103ef91815260200190565b60405180910390a3505050565b836104385760405162461bcd60e51b815260206004820152600c60248201526b092dcecc2d8d2c840d0c2e6d60a31b6044820152606401610358565b60648160ff1611156104815760405162461bcd60e51b815260206004820152601260248201527153636f7265206f7574206f662072616e676560701b6044820152606401610358565b6001604051806101a0016040528086815260200185858080601f016020809104026020016040519081016040528093929190818152602001838380828437600092018290525093855250505060ff8516602080840191909152604080840183905233606085015242608085015260a0840183905260c08401839052805180830190915282815260e0840152610100830182905261012083018290526101408301829052610160909201819052835460018181018655948252908290208351600a9092020190815590820151919290919082019061055e9082610f6b565b506040820151600282018054606085015160808601516001600160a01b0316620100000262010000600160b01b031991151561010090810261ffff1994851660ff9788161717929092161790925560a0850151600385015560c085015160048501805460e088015115158502931691909416171790915582015160058201906105e79082610f6b565b506101208201516006820180546001600160a01b039283166001600160a01b03199182161790915561014084015160078401556101608401516008840180549190931691161790556101809091015160099091015560018054339161064b9161102b565b7f5ce0efba335da78dea347f3bafe1a1c08721bdd2e8facba41179c63623acffa38686868642604051610682959493929190611075565b60405180910390a350505050565b6000918252602082815260408084206001600160a01b0393909316845291905290205460ff1690565b600181815481106106c957600080fd5b60009182526020909120600a909102018054600182018054919350906106ee90610ee3565b80601f016020809104026020016040519081016040528092919081815260200182805461071a90610ee3565b80156107675780601f1061073c57610100808354040283529160200191610767565b820191906000526020600020905b81548152906001019060200180831161074a57829003601f168201915b50505050600283015460038401546004850154600586018054959660ff8086169761010080880483169850620100009097046001600160a01b031696828616950490911692906107b690610ee3565b80601f01602080910402602001604051908101604052809291908181526020018280546107e290610ee3565b801561082f5780601f106108045761010080835404028352916020019161082f565b820191906000526020600020905b81548152906001019060200180831161081257829003601f168201915b50505060068401546007850154600886015460099096015494956001600160a01b039283169591945090911691508d565b60015481106108815760405162461bcd60e51b815260040161035890610e90565b60006001828154811061089657610896610eb7565b600091825260209091206002600a90920201908101805461ff0019166101001790556008810180546001600160a01b031916339081179091554260098301819055604051929350909184917f92b6aafda3fbdd14e549809ff3b5eed5def77d71e5a4e3cd1b5534da1bfca84a9161090f91815260200190565b60405180910390a35050565b60008281526020819052604090206001015461093681610a90565b6102cf8383610b2f565b7f68e79a7bf1e0bc45d0a330c573bc367f9cf464fd326078812f301165fbda4ef161096a81610a90565b600154861061098b5760405162461bcd60e51b815260040161035890610e90565b60648560ff1611156109d45760405162461bcd60e51b815260206004820152601260248201527153636f7265206f7574206f662072616e676560701b6044820152606401610358565b6000600187815481106109e9576109e9610eb7565b60009182526020909120600a9091020160048101805460ff891661ffff199091161761010088151502179055905060058101610a268486836110a6565b506006810180546001600160a01b03191633908117909155426007830181905560405189917f9ae39bbd5b8d79172f6576e81ade30b3aed7ba7a57caea96dce2fae5f59b5b8691610a7f918b918b918b918b9190611167565b60405180910390a350505050505050565b610a9a8133610b9a565b50565b6000610aa98383610690565b610b27576000838152602081815260408083206001600160a01b03861684529091529020805460ff19166001179055610adf3390565b6001600160a01b0316826001600160a01b0316847f2f8788117e7eff1d82e926ec794901d17c78024a50270940304540a733656f0d60405160405180910390a45060016102a4565b5060006102a4565b6000610b3b8383610690565b15610b27576000838152602081815260408083206001600160a01b0386168085529252808320805460ff1916905551339286917ff6391f5c32d9c69d2a47ea670b442974b53935d1edc7fd64eb21e047a839171b9190a45060016102a4565b610ba48282610690565b610bd35760405163e2517d3f60e01b81526001600160a01b038216600482015260248101839052604401610358565b5050565b600060208284031215610be957600080fd5b81356001600160e01b031981168114610c0157600080fd5b9392505050565b600060208284031215610c1a57600080fd5b5035919050565b60008060408385031215610c3457600080fd5b8235915060208301356001600160a01b0381168114610c5257600080fd5b809150509250929050565b60008083601f840112610c6f57600080fd5b50813567ffffffffffffffff811115610c8757600080fd5b602083019150836020828501011115610c9f57600080fd5b9250929050565b803560ff81168114610cb757600080fd5b919050565b60008060008060608587031215610cd257600080fd5b84359350602085013567ffffffffffffffff811115610cf057600080fd5b610cfc87828801610c5d565b9094509250610d0f905060408601610ca6565b905092959194509250565b6000815180845260005b81811015610d4057602081850181015186830182015201610d24565b506000602082860101526020601f19601f83011685010191505092915050565b8d81526101a060208201526000610d7b6101a083018f610d1a565b60ff8e1660408401528c151560608401526001600160a01b038c1660808401528a60a0840152610db060c084018b60ff169052565b88151560e0840152828103610100840152610dcb8189610d1a565b915050610de46101208301876001600160a01b03169052565b84610140830152610e016101608301856001600160a01b03169052565b826101808301529e9d5050505050505050505050505050565b600080600080600060808688031215610e3257600080fd5b85359450610e4260208701610ca6565b935060408601358015158114610e5757600080fd5b9250606086013567ffffffffffffffff811115610e7357600080fd5b610e7f88828901610c5d565b969995985093965092949392505050565b6020808252600d908201526c092dcecc2d8d2c840d2dcc8caf609b1b604082015260600190565b634e487b7160e01b600052603260045260246000fd5b634e487b7160e01b600052604160045260246000fd5b600181811c90821680610ef757607f821691505b602082108103610f1757634e487b7160e01b600052602260045260246000fd5b50919050565b601f82111561030857600081815260208120601f850160051c81016020861015610f445750805b601f850160051c820191505b81811015610f6357828155600101610f50565b505050505050565b815167ffffffffffffffff811115610f8557610f85610ecd565b610f9981610f938454610ee3565b84610f1d565b602080601f831160018114610fce5760008415610fb65750858301515b600019600386901b1c1916600185901b178555610f63565b600085815260208120601f198616915b82811015610ffd57888601518255948401946001909101908401610fde565b508582101561101b5787850151600019600388901b60f8161c191681555b5050505050600190811b01905550565b818103818111156102a457634e487b7160e01b600052601160045260246000fd5b81835281816020850137506000828201602090810191909152601f909101601f19169091010190565b85815260806020820152600061108f60808301868861104c565b60ff94909416604083015250606001529392505050565b67ffffffffffffffff8311156110be576110be610ecd565b6110d2836110cc8354610ee3565b83610f1d565b6000601f84116001811461110657600085156110ee5750838201355b600019600387901b1c1916600186901b178355611160565b600083815260209020601f19861690835b828110156111375786850135825560209485019460019092019101611117565b50868210156111545760001960f88860031b161c19848701351681555b505060018560011b0183555b5050505050565b60ff86168152841515602082015260806040820152600061118c60808301858761104c565b9050826060830152969550505050505056fea2646970667358221220a06e574f61b2b935eaf4ba97c71c78604d5d4ce18ab88ab671e86f178351cf5864736f6c63430008150033",
  "immutableReferences": {},
  "source": "// SPDX-License-Identifier: MIT\r\npragma solidity ^0.8.20;\r\n\r\nimport \"@openzeppelin/contracts/access/AccessControl.sol\";\r\n\r\ncontract FakeNewsVerifier is AccessControl {\r\n    // Roles (Personne A)\r\n    bytes32 public constant MODERATOR_ROLE = keccak256(\"MODERATOR_ROLE\");\r\n    bytes32 public constant ORACLE_ROLE    = keccak256(\"ORACLE_ROLE\");\r\n\r\n    struct Information {\r\n        // --- Champs historiques (NE PAS CHANGER L'ORDRE) pour compatibilit frontend ---\r\n        bytes32 contentHash;\r\n        string source;\r\n        uint8 reliabilityScore; // 0..100 (score initial / manuel)\r\n        bool validated;\r\n        address author;\r\n        uint256 timestamp;\r\n\r\n        // --- Nouveaux champs ajouts ( la fin) : oracle ML + traabilit ---\r\n        uint8 mlScore;          // 0..100\r\n        bool mlLabel;           // true=REAL, false=FAKE (convention)\r\n        string modelVersion;    // ex: \"v1.0\"\r\n        address oracle;         // adresse qui a crit le score\r\n        uint256 scoredAt;       // timestamp ML\r\n\r\n        address validator;      // qui a valid (si validateInformation utilis)\r\n        uint256 validatedAt;    // timestamp validation\r\n    }\r\n\r\n    Information[] public informations;\r\n\r\n    // Events existants (frontend-compatible)\r\n    event InformationSubmitted(\r\n        uint256 indexed index,\r\n        address indexed author,\r\n        bytes32 contentHash,\r\n        string source,\r\n        uint8 reliabilityScore,\r\n        uint256 timestamp\r\n    );\r\n\r\n    event InformationValidated(\r\n        uint256 indexed index,\r\n        address indexed validator,\r\n        uint256 timestamp\r\n    );\r\n\r\n    // Event ajout (Oracle ML)\r\n    event InformationScored(\r\n        uint256 indexed index,\r\n        uint8 score,\r\n        bool label,\r\n        string modelVersion,\r\n        address indexed oracle,\r\n        uint256 timestamp\r\n    );\r\n\r\n    // Constructor RBAC \r\n    constructor(address[] memory moderators, address[] memory oracles) {\r\n        // admin = deployer\r\n        _grantRole(DEFAULT_ADMIN_ROLE, msg.sender);\r\n\r\n        for (uint256 i = 0; i < moderators.length; i++) {\r\n            _grantRole(MODERATOR_ROLE, moderators[i]);\r\n        }\r\n\r\n        for (uint256 i = 0; i < oracles.length; i++) {\r\n            _grantRole(ORACLE_ROLE, oracles[i]);\r\n        }\r\n    }\r\n\r\n    // --- Fonctions attendues par le frontend (inchanges) ---\r\n\r\n    function getInformationsCount() external view returns (uint256) {\r\n        return informations.length;\r\n    }\r\n\r\n    function submitInformation(\r\n        bytes32 contentHash,\r\n        string calldata source,\r\n        uint8 reliabilityScore\r\n    ) external {\r\n        require(contentHash != bytes32(0), \"Invalid hash\");\r\n        require(reliabilityScore <= 100, \"Score out of range\");\r\n\r\n        informations.push(\r\n            Information({\r\n                contentHash: contentHash,\r\n                source: source,\r\n                reliabilityScore: reliabilityScore,\r\n                validated: false,\r\n                author: msg.sender,\r\n                timestamp: block.timestamp,\r\n\r\n                // champs ML (init)\r\n                mlScore: 0,\r\n                mlLabel: false,\r\n                modelVersion: \"\",\r\n                oracle: address(0),\r\n                scoredAt: 0,\r\n\r\n                // traabilit validation (init)\r\n                validator: address(0),\r\n                validatedAt: 0\r\n            })\r\n        );\r\n\r\n        emit InformationSubmitted(\r\n            informations.length - 1,\r\n            msg.sender,\r\n            contentHash,\r\n            source,\r\n            reliabilityScore,\r\n            block.timestamp\r\n        );\r\n    }\r\n\r\n    //  On la laisse PUBLIC (sans rle) pour ne pas casser le frontend existant\r\n    function validateInformation(uint256 index) external {\r\n        require(index < informations.length, \"Invalid index\");\r\n\r\n        Information storage info = informations[index];\r\n        info.validated = true;\r\n        info.validator = msg.sender;\r\n        info.validatedAt = block.timestamp;\r\n\r\n        emit InformationValidated(index, msg.sender, block.timestamp);\r\n    }\r\n\r\n    // --- Ajouts : Oracle ML ---\r\n\r\n    function setMLResult(\r\n        uint256 index,\r\n        uint8 score,\r\n        bool label,\r\n        string calldata modelVersion\r\n    ) external onlyRole(ORACLE_ROLE) {\r\n        require(index < informations.length, \"Invalid index\");\r\n        require(score <= 100, \"Score out of range\");\r\n\r\n        Information storage info = informations[index];\r\n        info.mlScore = score;\r\n        info.mlLabel = label;\r\n        info.modelVersion = modelVersion;\r\n        info.oracle = msg.sender;\r\n        info.scoredAt = block.timestamp;\r\n\r\n        emit InformationScored(index, score, label, modelVersion, msg.sender, block.timestamp);\r\n    }\r\n\r\n    // --- Ajout optionnel  : validation modrateur (RBAC) ---\r\n    function moderatorValidateInformation(uint256 index)\r\n        external\r\n        onlyRole(MODERATOR_ROLE)\r\n    {\r\n        require(index < informations.length, \"Invalid index\");\r\n\r\n        Information storage info = informations[index];\r\n        info.validated = true;\r\n        info.validator = msg.sender;\r\n        info.validatedAt = block.timestamp;\r\n\r\n        emit InformationValidated(index, msg.sender, block.timestamp);\r\n    }\r\n}\r\n",
  "sourcePath": "C:\\Fake_News\\blockchain\\contracts\\FakeNewsVerifier.sol",
  "compiler": {
    "name": "solc",
    "version": "0.8.21+commit.d9974bed.Emscripten.clang"
  },
  "schemaVersion": "3.4.16",
  "updatedAt": "2026-01-21T21:03:38.273Z",
  "networkType": "ethereum",
  "devdoc": {
    "errors": {
      "AccessControlBadConfirmation()": [
        {
          "details": "The caller of a function is not the expected one. NOTE: Don't confuse with {AccessControlUnauthorizedAccount}."
        }
      ],
      "AccessControlUnauthorizedAccount(address,bytes32)": [
        {
          "details": "The `account` is missing a role."
        }
      ]
    },
    "events": {
      "RoleAdminChanged(bytes32,bytes32,bytes32)": {
        "details": "Emitted when `newAdminRole` is set as ``role``'s admin role, replacing `previousAdminRole` `DEFAULT_ADMIN_ROLE` is the starting admin for all roles, despite {RoleAdminChanged} not being emitted to signal this."
      },
      "RoleGranted(bytes32,address,address)": {
        "details": "Emitted when `account` is granted `role`. `sender` is the account that originated the contract call. This account bears the admin role (for the granted role). Expected in cases where the role was granted using the internal {AccessControl-_grantRole}."
      },
      "RoleRevoked(bytes32,address,address)": {
        "details": "Emitted when `account` is revoked `role`. `sender` is the account that originated the contract call:   - if using `revokeRole`, it is the admin role bearer   - if using `renounceRole`, it is the role bearer (i.e. `account`)"
      }
    },
    "kind": "dev",
    "methods": {
      "getRoleAdmin(bytes32)": {
        "details": "Returns the admin role that controls `role`. See {grantRole} and {revokeRole}. To change a role's admin, use {_setRoleAdmin}."
      },
      "grantRole(bytes32,address)": {
        "details": "Grants `role` to `account`. If `account` had not been already granted `role`, emits a {RoleGranted} event. Requirements: - the caller must have ``role``'s admin role. May emit a {RoleGranted} event."
      },
      "hasRole(bytes32,address)": {
        "details": "Returns `true` if `account` has been granted `role`."
      },
      "renounceRole(bytes32,address)": {
        "details": "Revokes `role` from the calling account. Roles are often managed via {grantRole} and {revokeRole}: this function's purpose is to provide a mechanism for accounts to lose their privileges if they are compromised (such as when a trusted device is misplaced). If the calling account had been revoked `role`, emits a {RoleRevoked} event. Requirements: - the caller must be `callerConfirmation`. May emit a {RoleRevoked} event."
      },
      "revokeRole(bytes32,address)": {
        "details": "Revokes `role` from `account`. If `account` had been granted `role`, emits a {RoleRevoked} event. Requirements: - the caller must have ``role``'s admin role. May emit a {RoleRevoked} event."
      },
      "supportsInterface(bytes4)": {
        "details": "Returns true if this contract implements the interface defined by `interfaceId`. See the corresponding https://eips.ethereum.org/EIPS/eip-165#how-interfaces-are-identified[ERC section] to learn more about how these ids are created. This function call must use less than 30 000 gas."
      }
    },
    "version": 1
  },
  "userdoc": {
    "kind": "user",
    "methods": {},
    "version": 1
  }
}